:060000000A128A11AF2F65
:100F5E0083010A128A11C72FFF30831603139200E2
:100F6E00831203139210121495019B0112159715FB
:100F7E0017159D151D15971217129D121D1208009B
:100F8E000630831603139F00831203138501860117
:100F9E0087018801890103308316031386008701B8
:100FAE000A128A11B3270A128A11DD2F8312031334
:100FBE000618E22FE32FEA2F87110710FF30950056
:100FCE00FF309B00DD2F8618ED2FEE2FF52F8715A6
:100FDE000714FF309500FF309B00DD2F95019B011C
:100FEE00DD2FDD2FDD2FDD2FFC2FFC2F0A128A11B6
:020FFE000028C9
:02400E0032FF7F
:00000001FF
