:060000000A128A11B52F5F
:100F6A0083010A128A11CB2FFF30831603139200D2
:100F7A0083120313921012147F3095007F309B0066
:100F8A001215971517159D151D150800063083169D
:100F9A0003139F00831203138501860187018801C9
:100FAA008901033083160313860087010A128A1106
:100FBA00B9270A128A11E12F831203130618E62FA2
:100FCA00E72FEC2FFF309500FF309B00E12F8618AA
:100FDA00EF2FF02FF32F95019B01E12F7F30950022
:100FEA007F309B00E12FE12FE12FE12FFC2FFC2F17
:060FFA000A128A11002812
:02400E0032FF7F
:00000001FF
