:060000000A128A11A32F71
:100F460083010A128A11BF2F8316031318158130E5
:100F56009900831203139817831603139816080033
:100F6600F000B52F831203130C1EBA2FBB2FB52F1B
:100F7600BC2F7008990008000630831603139F00E3
:100F860083120313850186018701880189010330D5
:100F960083160313860087010A128A11A7270A12ED
:100FA6008A118312031307148714D92F831203138C
:100FB6000618DE2FDF2FE62FFF300A128A11B3271D
:100FC6000A128A11D92F8618E92FEA2FF12F00303D
:100FD6000A128A11B3270A128A11D92F7F300A12F0
:100FE6008A11B3270A128A11D92FD92FD92FD92FAF
:0A0FF600FC2FFC2F0A128A110028BC
:02400E0032FF7F
:00000001FF
